:100000000C942A000C9447000C9447000C94470071
:100010000C9447000C9447000C9447000C94470044
:100020000C9447000C9449000C9447000C94470032
:100030000C9447000C9447000C9447000C94470024
:100040000C9447000C9447000C9447000C94470014
:100050000C94470011241FBECFE5D4E0DEBFCDBF16
:1000600010E0A0E6B0E0ECEAF9E002C005900D92E5
:10007000A836B107D9F720E0A8E6B0E001C01D928C
:10008000AC36B207E1F70E9401030C94D4040C943F
:1000900000001F920F920FB60F9211248F939F931F
:1000A000AF93BF938091680090916900A0916A001E
:1000B000B0916B008F3F9105A105B10549F41092F5
:1000C00068001092690010926A0010926B0013C0D1
:1000D0008091680090916900A0916A00B0916B00D6
:1000E0000196A11DB11D8093680090936900A093B3
:1000F0006A00B0936B00BF91AF919F918F910F9069
:100100000FBE0F901F90189581E08BBB93E09A95DE
:10011000F1F700001BBA88BF89BF1DBC1CBC81E47D
:100120008EBD08B605FEFDCF1092680010926900E2
:1001300010926A0010926B0081E088BF89BF1DBCDD
:100140001CBC8EBD08B605FEFDCFE6B5F7B5209107
:1001500068003091690040916A0050916B00AFEFE8
:10016000BFEF0E94C9046E0F7F1F811D911D13BE3A
:100170000E94BF0323E333E349E652E40E941E03D7
:100180000895FC01208181E090E002C0880F991F52
:100190006A95E2F782230895FC01408121E030E076
:1001A00002C0220F331F6A95E2F7242B20830895A3
:1001B000FC01908121E030E002C0220F331F6A95DC
:1001C000E2F7209529232083089585BB64E085E329
:1001D00090E00E94D80065E085E390E00E94D8009E
:1001E00066E085E390E00E94CC0083EC99E0019703
:1001F000F1F700C0000066E085E390E00E94D800BF
:10020000089584B3807F84BB64E085E390E00E941E
:10021000D80065E085E390E00E94CC0066E085E3CD
:1002200090E00E94CC0083EC99E00197F1F700C0C8
:10023000000066E085E390E00E94D80063E083E37D
:1002400090E00E94C100811115C093E09A95F1F7EA
:10025000000066E085E390E00E94CC0083EC99E02A
:100260000197F1F700C0000066E085E390E00E948E
:10027000D800D4CF66E085E390E00E94CC0083EC08
:1002800099E00197F1F700C0000066E085E390E097
:100290000E94D80064E085E390E00E94D80065E009
:1002A00085E390E00E94D80084B38F6784BB0895F3
:1002B000CF93C82F82958F7085BB64E085E390E073
:1002C0000E94CC0065E085E390E00E94D80066E0E3
:1002D00085E390E00E94CC0083EC99E00197F1F770
:1002E00000C0000066E085E390E00E94D800CF7077
:1002F000C5BB64E085E390E00E94CC0065E085E347
:1003000090E00E94D80066E085E390E00E94CC0077
:1003100083EC99E00197F1F700C0000066E085E307
:1003200090E00E94D80064E085E390E00E94D8004D
:100330000E940101CF910895CF93DF93FC0103C088
:100340000E945801FE01EF01219680818111F8CFB2
:10035000DF91CF910895CF93C82F82958F7085BB81
:1003600064E085E390E00E94D80065E085E390E0DA
:100370000E94D80066E085E390E00E94CC0083EC08
:1003800099E00197F1F700C0000066E085E390E096
:100390000E94D800CF70C5BB64E085E390E00E9466
:1003A000D80065E085E390E00E94D80066E085E330
:1003B00090E00E94CC0083EC99E00197F1F700C037
:1003C000000066E085E390E00E94D8000E940101F1
:1003D000CF910895EF92FF920F931F93CF93DF93E6
:1003E000AC019C01ADECBCEC0E94BA04EC01D695CA
:1003F000C795D695C795D695C795CE01880F991FF5
:10040000CC0FDD1FCC0FDD1FCC0FDD1FC80FD91F98
:10041000CA018C1B9D0BEC010E94BA04FC01F695ED
:10042000E795F695E795F695E7959F010E94BA0442
:100430008C01169507951695079516950795C80191
:10044000880F991F000F111F000F111F000F111FA0
:10045000080F191FCF01801B910B8C019A01369553
:10046000279536952795ABE7B4E10E94BA04AC0115
:10047000569547959A01ADECBCEC0E94BA047C01FC
:10048000F694E794F694E794F694E794C701880FFE
:10049000991FEE0CFF1CEE0CFF1CEE0CFF1CE80E6F
:1004A000F91ECA018E199F097C0180E80E94AB01E8
:1004B00080E690E00E949C0186E80E94AB0180E308
:1004C0008E0D0E94580187E80E94AB0180E3800FE7
:1004D0000E94580188E80E94AB018C2F805D0E9429
:1004E0005801DF91CF911F910F91FF90EF900895E8
:1004F000CF92DF92EF92FF92CF93DF936B017C015B
:100500000E949003D62F972F8D2F0E94EA0189E831
:100510000E94AB018EE20E94580120E030E040E2F0
:1005200051E4C701B6010E944D040E9490039D2F23
:10053000990F892F880F880F890FC62FC81B8AE84B
:100540000E94AB0180E38C0F0E94580120E030E054
:1005500048EC52E4C701B6010E944D040E9490038A
:100560008C2F880F982F990F990F890F819594E6FA
:10057000D99F80191124C82FC60F8BE80E94AB01A8
:1005800080E38C0F0E945801DF91CF91FF90EF9094
:10059000DF90CF9008958FE784BB85EA9EE00197B6
:1005A000F1F700C0000083E00E94E50081EE94E0D6
:1005B0000197F1F700C0000083E00E94E50091E29E
:1005C0009A95F1F7000083E00E94E50081E28A95A8
:1005D000F1F7000082E00E94E50091E29A95F1F7C0
:1005E000000088E20E94AB0188E00E94AB0181E03C
:1005F0000E94AB0186E00E94AB018CE00E94AB013F
:1006000008950E94CB0281E08ABB1BBA11BA9FEF0A
:1006100092BB88BF89BF12BE1FBC789460E070E0B7
:10062000CB010E9478020E9484000E94780283ED30
:1006300090E30197F1F700C00000F5CF0E9432036C
:100640000C9413040E940C0458F00E94050440F01E
:1006500029F45F3F29F00C94FC0351110C944704DA
:100660000C9402040E94240468F39923B1F35523E7
:1006700091F3951B550BBB27AA27621773078407B5
:1006800038F09F5F5F4F220F331F441FAA1FA9F34B
:1006900035D00E2E3AF0E0E832D091505040E69539
:1006A000001CCAF72BD0FE2F29D0660F771F881F9A
:1006B000BB1F261737074807AB07B0E809F0BB0B8D
:1006C000802DBF01FF2793585F4F3AF09E3F5105A1
:1006D00078F00C94FC030C9447045F3FE4F3983EDD
:1006E000D4F3869577956795B795F7959F5FC9F78A
:1006F000880F911D9695879597F90895E1E0660F0B
:10070000771F881FBB1F621773078407BA0720F083
:10071000621B730B840BBA0BEE1F88F7E0950895EC
:100720000E942C0488F09F5798F0B92F9927B75151
:10073000B0F0E1F0660F771F881F991F1AF0BA9585
:10074000C9F714C0B13091F00E944604B1E0089599
:100750000C944604672F782F8827B85F39F0B93F8B
:10076000CCF3869577956795B395D9F73EF4909538
:100770008095709561957F4F8F4F9F4F0895E894B6
:1007800009C097FB3EF490958095709561957F4FD9
:100790008F4F9F4F9923A9F0F92F96E9BB27939587
:1007A000F695879577956795B795F111F8CFFAF497
:1007B000BB0F11F460FF1BC06F5F7F4F8F4F9F4FC8
:1007C00016C0882311F096E911C0772321F09EE826
:1007D000872F762F05C0662371F096E8862F70E08C
:1007E00060E02AF09A95660F771F881FDAF7880F66
:1007F0009695879597F9089597F99F6780E870E037
:1008000060E008959FEF80EC089500240A94161686
:10081000170618060906089500240A9412161306EE
:10082000140605060895092E0394000C11F488237C
:1008300052F0BB0F40F4BF2B11F460FF04C06F5F98
:100840007F4F8F4F9F4F089557FD9058440F551F6E
:1008500059F05F3F71F04795880F97FB991F61F042
:100860009F3F79F087950895121613061406551FB9
:10087000F2CF4695F1DF08C0161617061806991F25
:10088000F1CF86957105610508940895E894BB271A
:1008900066277727CB0197F908950E9460040C948E
:1008A00013040E94050438F00E940C0420F09523E4
:1008B00011F00C94FC030C94020411240C944704D2
:1008C0000E94240470F3959FC1F3950F50E0551FCB
:1008D000629FF001729FBB27F00DB11D639FAA2795
:1008E000F00DB11DAA1F649F6627B00DA11D661FE4
:1008F000829F2227B00DA11D621F739FB00DA11D05
:10090000621F839FA00D611D221F749F3327A00DBE
:10091000611D231F849F600D211D822F762F6A2F5A
:1009200011249F5750409AF0F1F088234AF0EE0FBF
:10093000FF1FBB1F661F771F881F91505040A9F7EC
:100940009E3F510580F00C94FC030C9447045F3FDC
:10095000E4F3983ED4F3869577956795B795F79528
:10096000E7959F5FC1F7FE2B880F911D96958795A0
:1009700097F90895A29FB001B39FC001A39F700D86
:10098000811D1124911DB29F700D811D1124911D97
:1009900008950E94BA04A59F900DB49F900DA49F46
:0C09A000800D911D11240895F894FFCFE4
:0809AC00446973203D200000A6
:00000001FF
