S01A00004163656C65726F6D6574726F204954776F432E7372656342
S11300000C94A7000C94C4000C94C4000C94C40079
S11300100C94C4000C94C4000C94C4000C94C4004C
S11300200C94C4000C94C4000C94C4000C94C4003C
S11300300C94C4000C94C4000C94C4000C94C4002C
S11300400C94C4000C94C4000C94C4000C94C4001C
S11300500C94C40000407A10F35A00A0724E1809A0
S11300600010A5D4E80000E87648170000E40B541B
S1130070020000CA9A3B000000E1F50500008096EA
S11300809800000040420F000000A086010000001C
S1130090102700000000E8030000000064000000D6
S11300A000000A00000000000100000000002C769F
S11300B0D888DC674F0823DFC1DFAE59E1B1B796BA
S11300C0E5E3E453C63AE651997696E8E6C2842617
S11300D0EB898C9B62ED407C6FFCEFBC9C9F40F2F3
S11300E0BAA56FA5F490055A2AF75C936B6CF9676F
S11300F06DC11BFCE0E40D47FEF520E6B500D0ED34
S1130100902E0300943577050080841E080000209B
S11301104E0A000000C80C333333330F986E128339
S11301201141EF8D2114893BE65516CFFEE6DB180D
S1130130D1844B381BF77C1D901DA4BBE4242032D2
S113014084725E228100C9F124ECA1E53D271124CB
S11301501FBECFE5D4E0DEBFCDBF10E0A0E6B0E027
S1130160E8E8FFE002C005900D92AE37B107D9F779
S113017020E0AEE7B0E001C01D92AA39B207E1F772
S11301800E94A2030C94C2070C94000011B88FEFD4
S113019080B9089594EA96BF06B607FEFDCF91B1E3
S11301A0987F903171F483B984E886BF06B607FE60
S11301B0FDCF81B1887F803431F0803231F482E028
S11301C0089580E0089581E0089583E0089584E926
S11301D086BF06B604FCFDCF0895CF93C82F84EAEA
S11301E086BF06B607FEFDCF81B1887F8830B9F798
S11301F0C3B984E886BF06B607FEFDCF81B1887F08
S1130200883119F00E94E700EACFCF91089583B9AD
S113021084E886BF06B607FEFDCF81B1887F8832A9
S113022021F0803321F481E0089580E0089582E094
S1130230089584EC86BF06B607FEFDCF83B108950A
S113024084E886BF06B607FEFDCF83B108958BE729
S113025092E90197F1F700C0000080ED0E94ED00E3
S113026089E10E94070187E00E9407010E94E700DC
S113027080ED0E94ED008BE60E94070181E00E9460
S113028007010E94E70080ED0E94ED008AE10E94D0
S1130290070180E00E9407010E94E70080ED0E94B0
S11302A0ED008BE10E94070188E10E9407010E9492
S11302B0E70080ED0E94ED0088E30E94070181E0E1
S11302C00E9407010E94E700089580ED0E94ED005E
S11302D08BE30E94070181ED0E94CA000895CF9329
S11302E0DF930E9465010E941901C82FD0E0DC2F22
S11302F0CC270E941901BE01682B072E000C880B25
S1130300990B0E941704609392007093930080935A
S11303109400909395000E941901C82FD0E0DC2F1F
S1130320CC270E941901BE01682B072E000C880BF4
S1130330990B0E94170460938A0070938B0080933A
S11303408C0090938D000E941901C82FD0E0DC2FFF
S1130350CC270E941901BE01682B072E000C880BC4
S1130360990B0E94170460937E0070937F00809322
S11303708000909381000E941901C82FD0E0DC2FE7
S1130380CC270E941901BE01682B072E000C880B94
S1130390990B0E94170460938600709387008093E2
S11303A08800909389000E941901C82FD0E0DC2FA7
S11303B0CC270E941901BE01682B072E000C880B64
S11303C0990B0E94170460938200709383008093BA
S11303D08400909385000E941901C82FD0E0DC2F7F
S11303E0CC270E941901BE01682B072E000C880B34
S11303F0990B0E9417046093960070939700809362
S11304009800909399000E941901C82FD0E0DC2F26
S1130410CC270E942001BE01682B072E000C880BFC
S1130420990B0E94170460938E0070938F00809341
S11304309000909391000E94E700DF91CF9108957E
S113044021B3226021BB90BD89B98AB188618AB980
S113045080B5866880BD08955D9BFECF8CB90895F4
S11304600F931F93CF938C01C0E003C00E942C0212
S1130470CF5FF801EC0FF11D80818111F7CFCF918F
S11304801F910F910895FC01208181E090E002C04A
S1130490880F991F6A95E2F782230895FC01408131
S11304A021E030E002C0220F331F6A95E2F7242BCB
S11304B020830895FC01908121E030E002C0220FE6
S11304C0331F6A95E2F720952923208308958BBB77
S11304D064E08BE390E00E945A0265E08BE390E0D5
S11304E00E945A0266E08BE390E00E944E0283EC85
S11304F099E00197F1F700C0000066E08BE390E01B
S11305000E945A0208958AB3807F8ABB64E08BE319
S113051090E00E945A0265E08BE390E00E944E0254
S113052066E08BE390E00E944E0283EC99E0019731
S1130530F1F700C0000066E08BE390E00E945A02ED
S113054063E089E390E00E944302811115C093E0C7
S11305509A95F1F7000066E08BE390E00E944E026A
S113056083EC99E00197F1F700C0000066E08BE3AB
S113057090E00E945A02D4CF66E08BE390E00E94A0
S11305804E0283EC99E00197F1F700C0000066E0A9
S11305908BE390E00E945A0264E08BE390E00E94B7
S11305A05A0265E08BE390E00E945A028AB38F6797
S11305B08ABB0895CF93C82F82958F708BBB64E05C
S11305C08BE390E00E944E0265E08BE390E00E9492
S11305D05A0266E08BE390E00E944E0283EC99E0BD
S11305E00197F1F700C0000066E08BE390E00E9401
S11305F05A02CF70CBBB64E08BE390E00E944E02C2
S113060065E08BE390E00E945A0266E08BE390E0A1
S11306100E944E0283EC99E00197F1F700C00000BC
S113062066E08BE390E00E945A0264E08BE390E082
S11306300E945A020E948302CF910895CF93DF93C0
S1130640FC0103C00E94DA02FE01EF0121968081C1
S11306508111F8CFDF91CF910895CF93C82F829560
S11306608F708BBB64E08BE390E00E945A0265E0DC
S11306708BE390E00E945A0266E08BE390E00E94D4
S11306804E0283EC99E00197F1F700C0000066E0A8
S11306908BE390E00E945A02CF70CBBB64E08BE303
S11306A090E00E945A0265E08BE390E00E945A02B7
S11306B066E08BE390E00E944E0283EC99E00197A0
S11306C0F1F700C0000066E08BE390E00E945A025C
S11306D00E948302CF9108958FE78ABB85EA9EE04A
S11306E00197F1F700C0000083E00E94670281EEE9
S11306F094E00197F1F700C0000083E00E946702D4
S113070091E29A95F1F7000083E00E94670281E28A
S11307108A95F1F7000082E00E94670291E29A95BF
S1130720F1F7000088E20E942D0388E00E942D0367
S113073081E00E942D0386E00E942D038CE00E943C
S11307402D030895CF93DF9300D01F92CDB7DEB76A
S11307500E946C0385E090E00E9420020E94C60083
S11307600E94270180E80E942D0380E690E00E9409
S11307701E030E946F0120E030E040E858E36091DE
S113078092007091930080919400909195000E9442
S11307907B046B017C018E010F5F1F4F22E041E05F
S11307A00E94390581E00E942D0380EC0E942D03F4
S11307B0C8010E941E0323E333E343EB5EE3C70156
S11307C0B6010E947604882364F08DE690E00E94CE
S11307D0300280E80E942D0381E790E00E941E030E
S11307E015C023E333E343EB5EEBC701B6010E947C
S11307F0100418165CF085E790E00E94300280E84F
S11308000E942D0389E790E00E941E032FE789EAE6
S113081093E0215080409040E1F700C00000A9CF50
S11308200E94520408F481E00895E89409C097FBFB
S11308303EF490958095709561957F4F8F4F9F4FB3
S11308409923A9F0F92F96E9BB279395F6958795F7
S113085077956795B795F111F8CFFAF4BB0F11F4BA
S113086060FF1BC06F5F7F4F8F4F9F4F16C0882361
S113087011F096E911C0772321F09EE8872F762F97
S113088005C0662371F096E8862F70E060E02AF0D8
S11308909A95660F771F881FDAF7880F96958795C4
S11308A097F90895990F0008550FAA0BE0E8FEEF99
S11308B016161706E807F907C0F012161306E40720
S11308C0F50798F0621B730B840B950B39F40A2619
S11308D061F0232B242B252B21F408950A2609F4F7
S11308E0A140A6958FEF811D811D08950E94520499
S11308F008F48FEF08950E948E040C94FF040E9464
S1130900F10438F00E94F80420F0952311F00C94BF
S1130910E8040C94EE0411240C9433050E94100591
S113092070F3959FC1F3950F50E0551F629FF0013E
S1130930729FBB27F00DB11D639FAA27F00DB11D57
S1130940AA1F649F6627B00DA11D661F829F2227E0
S1130950B00DA11D621F739FB00DA11D621F839F67
S1130960A00D611D221F749F3327A00D611D231F3D
S1130970849F600D211D822F762F6A2F11249F578B
S113098050409AF0F1F088234AF0EE0FFF1FBB1F8E
S1130990661F771F881F91505040A9F79E3F51054D
S11309A080F00C94E8040C9433055F3FE4F3983E24
S11309B0D4F3869577956795B795F795E7959F5FF7
S11309C0C1F7FE2B880F911D9695879597F9089589
S11309D097F99F6780E870E060E008959FEF80ECEE
S11309E0089500240A941616170618060906089591
S11309F000240A9412161306140605060895092EF7
S1130A000394000C11F4882352F0BB0F40F4BF2B65
S1130A1011F460FF04C06F5F7F4F8F4F9F4F0895A5
S1130A2057FD9058440F551F59F05F3F71F047959B
S1130A30880F97FB991F61F09F3F79F08795089580
S1130A40121613061406551FF2CF4695F1DF08C09F
S1130A50161617061806991FF1CF869571056105BC
S1130A6008940895E894BB2766277727CB0197F964
S1130A700895EF920F931F93CF93DF93E80147FDFF
S1130A8002C034E001C034E1042E000C550B57FFC2
S1130A9003C0519541955109E32E022F242FAE0135
S1130AA00E945905CE01DF91CF911F910F91EF90D4
S1130AB00895A9E0B0E0EFE5F5E00C9491076A0130
S1130AC0122FB02E2BE3201720F0FF24F394F00E06
S1130AD002C02CE3F22E0F2D27E0AE014F5F5F4FD3
S1130AE00E94B306BC014981842F8970813031F0A2
S1130AF0E1FC06C0E0FE06C090E205C09DE203C032
S1130B009BE201C090E05E2D507143FF3CC0911107
S1130B1002C083E001C084E0811718F4212F281B50
S1130B2001C020E051110BC0F601822F30E288236E
S1130B3019F031938150FBCFC20ED11C20E09923D0
S1130B4029F0D6019C93F60131966F01C6010396F4
S1130B50E2FE0AC03EE4D6013C9341E411964C9374
S1130B60119712963C9306C03EE6F601308341E6A7
S1130B7041833283FC01322F40E2332309F442C023
S1130B8041933150FACF42FF44C0911102C083E037
S1130B9001C084E0811718F4212F281B01C020E034
S1130BA051110BC0F601822F30E2882319F03193E2
S1130BB08150FBCFC20ED11C20E0992329F0D6012D
S1130BC09C93F60131966F01C6010396E2FE0BC0B9
S1130BD039E4D6013C933EE411963C93119736E4F4
S1130BE012963C9307C039E6F60130833EE6318322
S1130BF036E63283FC01322F40E2332319F041936D
S1130C003150FBCFFC01E20FF11D10828EEF9FEFFC
S1130C10A6C021E030E0911102C020E030E01616B9
S1130C2017061CF4FB01319602C0E1E0F0E02E0F40
S1130C303F1FBB2021F0EB2DF0E0319602C0E0E035
S1130C40F0E02E0F3F1FE12FF0E02E173F071CF4BA
S1130C50121B212F01C020E08E2D887159F4F6015A
S1130C60822F30E2882319F031938150FBCFC20EDA
S1130C70D11C20E0992329F0D6019C93F6013196EA
S1130C806F0151110BC0F601822F90E3882319F0F4
S1130C9091938150FBCFC20ED11C20E00F2D060F83
S1130CA09A81342F307144FF03C0913309F4015009
S1130CB0101624F4093018F008E001C001E0AB017B
S1130CC077FF02C040E050E0FB01E41BF50BA1E01C
S1130CD0B0E0AC0FBD1FEA0FFB1F8EE2A82E4B0144
S1130CE0801A91080B2D10E01195019511094F3FC1
S1130CF0BFEF5B0721F4D601AC9211966D01641726
S1130D0075072CF08416950614F4818101C080E3E4
S1130D10415051093196D60111967D014017510772
S1130D2024F0D6018C936701E2CF6417750739F478
S1130D30963320F4953319F4311101C081E3F6019F
S1130D408083F701822F90E2882319F091938150D8
S1130D50FBCFF701E20FF11D108280E090E02996AD
S1130D60ECE00C94AD07283008F027E03327DA01D3
S1130D70990F311D87FD916000966105710539F465
S1130D8032602E5F3D9330E32A95E1F708959F3F4B
S1130D9030F080387105610509F03C5F3C5F3D939C
S1130DA0913008F08068911DDF93CF931F930F93C8
S1130DB0FF92EF92192F987F9695E92F9695969525
S1130DC0E90FFF27E255FF4F99273327EE24FF242D
S1130DD0A701E70105900894079428F4360FE71E4D
S1130DE0F81E491F511D660F771F881F991F06940F
S1130DF0A1F70590079428F4E70EF81E491F561F23
S1130E00C11D770F881F991F661F0694A1F70590CF
S1130E10079428F4F80E491F561FC71FD11D880FC9
S1130E20991F661F771F0694A1F70590079420F475
S1130E30490F561FC71FD81F990F661F771F881F9A
S1130E400694A9F784911095177041F0D695C7952B
S1130E5057954795F794E7941A95C1F7E4E5F0E0C0
S1130E6068941590159135916591959105907FE25F
S1130E707395E118F10A430B560BC90BD009C0F75F
S1130E80E10CF11E431F561FC91FD01D7EF47033A1
S1130E9011F48A95E6CFE894015030F0080F0AF473
S1130EA00027021708F4202F2395022F7A3328F005
S1130EB079E37D932A95E9F710C07D932A9589F605
S1130EC0069497956795379517951794E118F10A45
S1130ED0430B560BC90BD00998F023957E9173955B
S1130EE07A3308F070E37C932013B8F77E91706135
S1130EF07D9330F0839571E37D9370E32A95E1F758
S1130F001124EF90FF900F911F91CF91DF919927BA
S1130F1087FD909508952F923F924F925F926F9222
S1130F207F928F929F92AF92BF92CF92DF92EF9275
S1130F30FF920F931F93CF93DF93CDB7DEB7CA1BF6
S1130F40DB0B0FB6F894DEBF0FBECDBF09942A8821
S1130F50398848885F846E847D848C849B84AA84C9
S1130F60B984C884DF80EE80FD800C811B81AA8156
S1130F70B981CE0FD11D0FB6F894DEBF0FBECDBF21
S10B0F80ED010895F894FFCF80
S1130F8853454E53414E444F2E2E2E2000495A515C
S1110F9800497A71004445520044657200001D
S9030000FC
