S0120000507261637469636131322E7372656388
S11300000C942A000C9447000C9447000C9447006D
S11300100C9447000C9447000C9447000C94470040
S11300200C9447000C9447000C9447000C94470030
S11300300C9447000C9447000C9407030C9447005D
S11300400C9447000C9447000C9447000C9449000E
S11300500C94470011241FBECFE5D4E0DEBFCDBF12
S113006010E0A0E6B0E0EEE2FCE002C005900D92E4
S1130070AA38B107D9F720E0AAE8B0E001C01D9280
S1130080AE38B207E1F70E94E4030C9415060C9411
S113009000001F920F920FB60F9211240F900FBE03
S11300A00F901F901895FC01808190E002C09595F7
S11300B087956A95E2F7F1E08F27817008950F9391
S11300C01F93CF93DF93CDB7DEB760970FB6F89445
S11300D0DEBF0FBECDBF80E1E0E6F0E0DE011196A9
S11300E001900D928A95E1F700E010E0A5C081E04F
S11300F090E0002E02C0880F991F0A94E2F78095C1
S113010082BB000064E080E390E00E9453008823F7
S1130110F9F083ED90E30197F1F700C0000064E08B
S113012080E390E00E9453008111F9CF83ED90E3C6
S11301300197F1F700C00000000F111F000F111FFD
S1130140E1E0F0E0EC0FFD1FE00FF11F808179C0CA
S113015065E080E390E00E9453008823F9F083ED8A
S113016090E30197F1F700C0000065E080E390E0C0
S11301700E9453008111F9CF83ED90E30197F1F7C9
S113018000C00000000F111F000F111FE1E0F0E09C
S1130190EC0FFD1FE00FF11F818153C066E080E387
S11301A090E00E9453008823F9F083ED90E30197D7
S11301B0F1F700C0000066E080E390E00E94530085
S11301C08111F9CF83ED90E30197F1F700C00000AE
S11301D0000F111F000F111FE1E0F0E0EC0FFD1FF5
S11301E0E00FF11F82812DC067E080E390E00E9460
S11301F053008823F9F083ED90E30197F1F700C0F1
S1130200000067E080E390E00E9453008111F9CF81
S113021083ED90E30197F1F700C00000000F111F78
S1130220000F111FE1E0F0E0EC0FFD1FE00FF11FE4
S1130230838107C00F5F1F4F043011050CF457CFA3
S113024053CF60960FB6F894DEBF0FBECDBFDF91DB
S1130250CF911F910F910895FC01208181E090E0DE
S113026002C0880F991F6A95E2F7822308950F93BD
S11302701F93CF938C01C62F61E08CE390E00E9422
S11302802C018111F9CF1FBB0EBBCDBBF8948CB3ED
S113029084608CBB8CB382608CBB7894CF911F91AB
S11302A00F910895CF93DF93EC0161E08CE390E02C
S11302B00E942C018111F9CFDFBBCEBB8CB38160CE
S11302C08CBB8DB3DF91CF910895FC01408121E077
S11302D030E002C0220F331F6A95E2F7242B2083FB
S11302E00895FC01908121E030E002C0220F331F09
S11302F06A95E2F7209529232083089585BB64E05D
S113030085E390E00E94710165E085E390E00E943E
S1130310710166E085E390E00E94650183EC99E059
S11303200197F1F700C0000066E085E390E00E94C9
S11303307101089584B3807F84BB64E085E390E019
S11303400E94710165E085E390E00E94650166E02A
S113035085E390E00E94650183EC99E00197F1F751
S113036000C0000066E085E390E00E94710163E054
S113037083E390E00E942C01811115C093E09A95CB
S1130380F1F7000066E085E390E00E94650183ECEC
S113039099E00197F1F700C0000066E085E390E082
S11303A00E947101D4CF66E085E390E00E9465016C
S11303B083EC99E00197F1F700C0000066E085E363
S11303C090E00E94710164E085E390E00E94710175
S11303D065E085E390E00E94710184B38F6784BB7C
S11303E00895CF93C82F82958F7085BB64E085E311
S11303F090E00E94650165E085E390E00E94710150
S113040066E085E390E00E94650183EC99E0019742
S1130410F1F700C0000066E085E390E00E947101FE
S1130420CF70C5BB64E085E390E00E94650165E0A0
S113043085E390E00E94710166E085E390E00E940C
S1130440650183EC99E00197F1F700C0000066E0D4
S113045085E390E00E94710164E085E390E00E94EE
S113046071010E949A01CF910895CF93DF93FC010B
S113047003C00E94F101FE01EF01219680818111E8
S1130480F8CFDF91CF910895CF93C82F82958F70C5
S113049085BB64E085E390E00E94710165E085E33B
S11304A090E00E94710166E085E390E00E9465019E
S11304B083EC99E00197F1F700C0000066E085E362
S11304C090E00E947101CF70C5BB64E085E390E0C9
S11304D00E94710165E085E390E00E94710166E08D
S11304E085E390E00E94650183EC99E00197F1F7C0
S11304F000C0000066E085E390E00E9471010E9464
S11305009A01CF910895EF92FF920F931F93CF9387
S1130510DF9340918C0050918D009A01ADECBCECBE
S11305200E940606EC01D695C795D695C795D69533
S1130530C795CE01880F991FCC0FDD1FCC0FDD1F8F
S1130540CC0FDD1FC80FD91FCA018C1B9D0BEC01FA
S11305500E940606FC01F695E795F695E795F69553
S1130560E7959F010E9406068C011695079516953E
S1130570079516950795C801880F991F000F111F3D
S1130580000F111F000F111F080F191FCF01801B2F
S1130590910B8C019A013695279536952795ABE7F3
S11305A0B4E10E940606AC01569547959A01ADEC5C
S11305B0BCEC0E9406067C01F694E794F694E7945A
S11305C0F694E794C701880F991FEE0CFF1CEE0CFC
S11305D0FF1CEE0CFF1CE80EF91ECA018E199F09C0
S11305E07C0187EC0E94440280E38E0D0E94F1019D
S11305F080E3800F0E94F1018C2F805D0E94F10145
S1130600DF91CF911F910F91FF90EF9008951F926A
S11306100F920FB60F9211242F933F934F935F9332
S11306206F937F938F939F93AF93BF93CF93EF93E6
S1130630FF93C5B10E94830280918C0090918D003C
S1130640811522E0920760F46C2F0E94370180919B
S11306508C0090918D00019690938D0080938C0076
S1130660FF91EF91CF91BF91AF919F918F917F9126
S11306706F915F914F913F912F910F900FBE0F900B
S11306801F901895CF92DF92EF92FF92CF93DF9352
S113069080918C0090918D000E94520190E0BC01E9
S11306A0660F771F660F771F680F791F80E090E051
S11306B00E940B0520E030E04FE753E40E946A04F7
S11306C06B017C010E94DC04C62F80EC0E94440272
S11306D080E38C0F0E94F10181EC0E9444028EE2BF
S11306E00E94F10120E030E040E251E4C701B6018C
S11306F00E9499050E94DC049C2F990F892F880F72
S1130700880F890FD62FD81B82EC0E94440280E305
S11307108D0F0E94F10120E030E048EC52E4C70163
S1130720B6010E9499050E94DC04DD0F8D2F880F0D
S1130730880FD80F8CE9C89FC02D1124CD1BC60F7C
S113074083EC0E94440280E38C0F0E94F101DF914C
S1130750CF91FF90EF90DF90CF9008958FE784BB07
S113076085EA9EE00197F1F700C0000083E00E9453
S11307707E0181EE94E00197F1F700C0000083E070
S11307800E947E0191E29A95F1F7000083E00E94B5
S11307907E0181E28A95F1F7000082E00E947E01E9
S11307A091E29A95F1F7000088E20E94440288E001
S11307B00E94440281E00E94440286E00E944402B6
S11307C08CE00E94440208950E94AE0380E680BF3C
S11307D087B98BEA86B983E088BF82E089BF12BEFD
S11307E083EF8CBF8DE083BF8FE081BB8FEF82BB33
S11307F01ABA1BBA80E80E94440280E790E00E9483
S1130800350278940E945F008E3039F503B600FEFD
S113081024C088E083BF80918C0090918D00029762
S113082090938D0080938C0090938B0080938A002A
S113083081E00E94440283EC99E00197F1F700C043
S1130840000080E80E9444028DE790E00E94350297
S11308500E9483020E944203D5CF8C30B1F42091D0
S11308608C0030918D002F5F3F4F40918A00509152
S11308708B004217530748F030938D0020938C006F
S11308800E9442030E948302BDCF8D3091F42091D7
S11308908C0030918D002115310559F0215031091A
S11308A030938D0020938C000E9442030E948302A7
S11308B0A9CF8E3009F0A6CF80E80E94440280E7D9
S11308C090E00E94350210928D0010928C008DE011
S11308D083BF98CF0E947E040C945F050E94580544
S11308E058F00E94510540F029F45F3F29F00C9420
S11308F0480551110C9493050C944E050E94700503
S113090068F39923B1F3552391F3951B550BBB273A
S1130910AA2762177307840738F09F5F5F4F220F7F
S1130920331F441FAA1FA9F335D00E2E3AF0E0E876
S113093032D091505040E695001CCAF72BD0FE2FC0
S113094029D0660F771F881FBB1F26173707480754
S1130950AB07B0E809F0BB0B802DBF01FF2793580C
S11309605F4F3AF09E3F510578F00C9448050C9483
S113097093055F3FE4F3983ED4F3869577956795A6
S1130980B795F7959F5FC9F7880F911D9695879541
S113099097F90895E1E0660F771F881FBB1F621760
S11309A073078407BA0720F0621B730B840BBA0B1E
S11309B0EE1F88F7E09508950E94780588F09F5708
S11309C098F0B92F9927B751B0F0E1F0660F771F6F
S11309D0881F991F1AF0BA95C9F714C0B13091F065
S11309E00E949205B1E008950C949205672F782F28
S11309F08827B85F39F0B93FCCF38695779567952A
S1130A00B395D9F73EF490958095709561957F4F95
S1130A108F4F9F4F0895E89409C097FB3EF490953B
S1130A208095709561957F4F8F4F9F4F9923A9F0C3
S1130A30F92F96E9BB279395F69587957795679552
S1130A40B795F111F8CFFAF4BB0F11F460FF1BC096
S1130A506F5F7F4F8F4F9F4F16C0882311F096E929
S1130A6011C0772321F09EE8872F762F05C06623D7
S1130A7071F096E8862F70E060E02AF09A95660F90
S1130A80771F881FDAF7880F9695879597F9089549
S1130A9097F99F6780E870E060E008959FEF80EC2D
S1130AA0089500240A9416161706180609060895D0
S1130AB000240A9412161306140605060895092E36
S1130AC00394000C11F4882352F0BB0F40F4BF2BA5
S1130AD011F460FF04C06F5F7F4F8F4F9F4F0895E5
S1130AE057FD9058440F551F59F05F3F71F04795DB
S1130AF0880F97FB991F61F09F3F79F087950895C0
S1130B00121613061406551FF2CF4695F1DF08C0DE
S1130B10161617061806991FF1CF869571056105FB
S1130B2008940895E894BB2766277727CB0197F9A3
S1130B3008950E94AC050C945F050E94510538F09D
S1130B400E94580520F0952311F00C9448050C944C
S1130B504E0511240C9493050E94700570F3959F23
S1130B60C1F3950F50E0551F629FF001729FBB27A0
S1130B70F00DB11D639FAA27F00DB11DAA1F649F3C
S1130B806627B00DA11D661F829F2227B00DA11DEF
S1130B90621F739FB00DA11D621F839FA00D611D75
S1130BA0221F749F3327A00D611D231F849F600D96
S1130BB0211D822F762F6A2F11249F5750409AF0BF
S1130BC0F1F088234AF0EE0FFF1FBB1F661F771F4B
S1130BD0881F91505040A9F79E3F510580F00C9416
S1130BE048050C9493055F3FE4F3983ED4F386954F
S1130BF077956795B795F795E7959F5FC1F7FE2BB6
S1130C00880F911D9695879597F90895A29FB00135
S1130C10B39FC001A39F700D811D1124911DB29F2C
S1110C20700D811D1124911D0895F894FFCFCD
S1130C2E0102030C0405050D0708090E0A000B0F3B
S1130C3E53454E53414E444F2E2E2E2000554C54A8
S10D0C4E494D4F532056414C2E002F
S9030000FC
