:020000020000FC
:100000000C942A000C946E000C946F000C947000F9
:100010000C9471000C9472000C9473000C94740096
:100020000C9475000C9476000C9477000C94780076
:100030000C9479000C947A000C947B000C947C0056
:100040000C947D000C947E000C947F000C94800036
:100050000C94880004E00EBF0FE50DBF00E007BB65
:100060000ABB0FEF04BB0FEF08BB0BBB00E005BBE7
:1000700040E050E001E005BBB09B09F0FDCF0DD0A2
:100080001DD0B09BFECF1AD0F7CFC89BFECFC8992A
:10009000FECF0895C899FECF0895C89BB1F3C899C3
:1000A000C9F353950CE70CBF00E002BF03E008BFA3
:1000B00002E009BF0AE003BF7894089511E124EF3C
:1000C0002A95F1F71A95D9F711E01A95F1F7000082
:1000D000000008955395189545BB189518951895E7
:1000E00018951895189518951895189518951895A8
:1000F0001895189518951895189518951895189598
:100100000FB74395B19B31F3523031F30FBF1895C0
:02011000189540
:00000001FF
