:020000020000FC
:100000000C942A000C94E5000C94E6000C94E70094
:100010000C94E8000C94E9000C94EA000C94EB00BA
:100020000C94EC000C94ED000C94EE000C94EF009A
:100030000C94F0000C94F1000C94F2000C94F3007A
:100040000C94F4000C94F5000C94F6000C94F7005A
:100050000C94F80004E00EBF0FE50DBF0FEF07BBD7
:1000600008BB04BB01BB0FEF05BB02BB01E00CBF2B
:1000700000E002BF03E008BF02E009BF08E603BFDB
:1000800041E0809B01C0FDCF47D0809BFECF44D094
:100090004FD078D054D076D059D074D049D072D0C7
:1000A00047D070D04CD06ED051D06CD041D06AD0F7
:1000B0004DD068D052D066D057D073D047D062D0E0
:1000C0004CD060D051D06DD04FD06ED054D06CD0C9
:1000D0004BD06AD042D068D039D054D029D052D039
:1000E00043D062D048D060D03FD05ED036D05CD014
:1000F0002DD048D01DD046D022D044D035D042D0CB
:1001000017D04FD01CD03ED02FD03CD011D049D0EA
:1001100008E603BFC398B5CF15E624EA2A95F1F7A0
:100120001A95D9F711E01A95F1F70000000008952B
:100130000DE10CBF00E002BF0BE103BF08950AE12F
:100140000CBF00E002BF0BE103BF089507E10CBF45
:1001500000E002BF0BE103BF089505E10CBF00E022
:1001600002BF0BE103BF089503E10CBF00E002BF33
:100170000BE103BF089501E10CBF00E002BF0BE1FA
:1001800003BF08951FE027E339EC3A95F1F72A956C
:10019000D9F71A95C1F711E01A95F1F700000000A0
:1001A0000895F0DFEFDF089517EA22E038EF3A957F
:1001B000F1F72A95D9F71A95C1F700000895E2DF03
:1001C000F3DF0895EEDFDEDF089518951895189592
:1001D00018951895189518951895189518951895B7
:1001E00018951895189518951895189518951895A7
:0201F000189560
:00000001FF
