:020000020000FC
:100000000C942A000C946E000C946F000C947000F9
:100010000C9471000C9472000C9473000C94740096
:100020000C9475000C9476000C9477000C94780076
:100030000C9479000C947A000C947B000C947C0056
:100040000C947D000C947E000C947F000C94800036
:100050000C94810004E00EBF0FE50DBF00E00ABB69
:100060000FE00BBB0FEF04BB0FE705BB09B300307C
:10007000A1F00130A9F00230B1F00330B9F0043042
:10008000C1F00530C9F00630D1F00730D9F00830A2
:10009000E1F00930E9F01FC0E9CF0FE305BBE6CF7F
:1000A00006E005BBE3CF0BE505BBE0CF0FE405BBE6
:1000B000DDCF06E605BBDACF0DE605BBD7CF0DE7F2
:1000C00005BBD4CF07E005BBD1CF0FE705BBCECF33
:1000D0000FE605BBCBCF00E005BBC8CF1895189540
:1000E00018951895189518951895189518951895A8
:1000F0001895189518951895189518951895189598
:0401000018951895A1
:00000001FF
