S00D000052656C6F6A2E737265631B
S11300000C942A000C943F000C943F000C943F0085
S11300100C943F000C943F000C943F000C943F0060
S11300200C943F000C943F000C943F000C943F0050
S11300300C943F000C943F000C943F000C943F0040
S11300400C943F000C943F000C943F000C943F0030
S11300500C943F0011241FBECFE5D4E0DEBFCDBF1A
S113006010E0A0E6B0E0EEEAFAE002C005900D92DE
S1130070AE36B107D9F70E944A020C9455050C9488
S113008000008DEF80B911B884EA86BF089584EC2E
S113009086BF06B607FEFDCF83B1089584E886BF08
S11300A006B607FEFDCF83B1089584E986BF06B680
S11300B004FCFDCF089583B984E886BF06B607FE25
S11300C0FDCF81B1887F883211F081E0089580E00E
S11300D0089584EA86BF06B607FEFDCF08951F93F0
S11300E0CF93DF93C82FD62F142F0E94690080ED81
S11300F00E945B0080E00E945B00812F0E945B00F5
S11301008D2F0E945B008C2F0E945B000E94550083
S1130110DF91CF911F910895CF93DF93EC010E945B
S1130120690080ED0E945B0080E00E945B000E94F9
S113013055000E94690081ED0E945B000E94470007
S113014088830E94470089830E9447008A830E9413
S113015047008B830E9447008C830E9447008D8355
S11301600E944E008E830E945500DF91CF91089526
S1130170FC01208181E090E002C0880F991F6A95FC
S1130180E2F782230895FC01408121E030E002C0BF
S1130190220F331F6A95E2F7242B20830895FC0174
S11301A0908121E030E002C0220F331F6A95E2F70C
S11301B020952923208308958BBB64E08BE390E092
S11301C00E94CF0065E08BE390E00E94CF0066E0E0
S11301D08BE390E00E94C30083EC99E00197F1F770
S11301E000C0000066E08BE390E00E94CF00089519
S11301F08AB3807F8ABB64E08BE390E00E94CF00E7
S113020065E08BE390E00E94C30066E08BE390E03E
S11302100E94C30083EC99E00197F1F700C000004D
S113022066E08BE390E00E94CF0063E089E390E016
S11302300E94B800811115C093E09A95F1F700006F
S113024066E08BE390E00E94C30083EC99E00197A1
S1130250F1F700C0000066E08BE390E00E94CF005D
S1130260D4CF66E08BE390E00E94C30083EC99E076
S11302700197F1F700C0000066E08BE390E00E9474
S1130280CF0064E08BE390E00E94CF0065E08BE355
S113029090E00E94CF008AB38F678ABB0895CF9302
S11302A0C82F82958F708BBB64E08BE390E00E9433
S11302B0C30065E08BE390E00E94CF0066E08BE32F
S11302C090E00E94C30083EC99E00197F1F700C02D
S11302D0000066E08BE390E00E94CF00CF70CBBBC0
S11302E064E08BE390E00E94C30065E08BE390E060
S11302F00E94CF0066E08BE390E00E94C30083EC91
S113030099E00197F1F700C0000066E08BE390E00C
S11303100E94CF0064E08BE390E00E94CF000E9433
S1130320F800CF910895CF93DF93FC0103C00E949E
S11303304F01FE01EF01219680818111F8CFDF91F9
S1130340CF910895CF93C82F82958F708BBB64E0B3
S11303508BE390E00E94CF0065E08BE390E00E9485
S1130360CF0066E08BE390E00E94C30083EC99E049
S11303700197F1F700C0000066E08BE390E00E9473
S1130380CF00CF70CBBB64E08BE390E00E94CF0042
S113039065E08BE390E00E94CF0066E08BE390E0A1
S11303A00E94C30083EC99E00197F1F700C00000BC
S11303B066E08BE390E00E94CF000E94F800CF91AA
S11303C008950F931F93CF93DF93CDB7DEB7A7970D
S11303D00FB6F894DEBF0FBECDBF1F922F931F92AE
S11303E03F931F924F9380E690E09F938F938E01EB
S11303F00F5F1F4F1F930F930E946B0280E80E94B0
S1130400A201C8010E9493010FB6F894DEBF0FBE8B
S1130410CDBFA7960FB6F894DEBF0FBECDBFDF9158
S1130420CF911F910F9108958FE78ABB85EA9EE0D3
S11304300197F1F700C0000083E00E94DC0081EE28
S113044094E00197F1F700C0000083E00E94DC0013
S113045091E29A95F1F7000083E00E94DC0081E2CA
S11304608A95F1F7000082E00E94DC0091E29A95FF
S1130470F1F7000088E20E94A20188E00E94A20134
S113048081E00E94A20186E00E94A2018CE00E9409
S1130490A2010895CF93DF93CDB7DEB727970FB6A8
S11304A0F894DEBF0FBECDBF0E9414020E9441002B
S11304B040E060E082E10E946F00CE0101960E945C
S11304C08C0029813A814B815C816D817E818F8191
S11304D00E94E101F2CFAEE0B0E0E1E7F2E00C947B
S11304E02C050D891E8986E08C831A8309838FEF7E
S11304F09FE79E838D83AE01475E5F4F6F89788D42
S1130500CE0101960E948D02EF81F885E00FF11F64
S113051010822E96E4E00C944805ABE0B0E0E3E9E9
S1130520F2E00C941E056C017B018A01FC01178228
S11305301682838181FFCCC1CE0101963C01F60174
S11305409381F70193FD859193FF81917F01882326
S113055009F4BAC1853239F493FD859193FF8191F1
S11305607F01853229F4B60190E00E948404E7CF2C
S1130570912C212C312CFFE1F315D8F08B3279F03A
S113058038F4803279F08332A1F4232D20611DC028
S11305908D3261F0803369F4232D216016C0832DE0
S11305A08260382EE32DE4603E2E2AC0F32DF860DD
S11305B01DC037FC2DC020ED280F2A3040F08E32AC
S11305C0B9F436FC81C1232D2064322E19C036FEC5
S11305D006C08AE0989E200D1124922E11C0EAE0F4
S11305E02E9E200D1124222EF32DF0623F2E08C0E2
S11305F08C3621F4832D8068382E02C0883641F46D
S1130600F70193FD859193FF81917F018111B3CF10
S1130610982F9F7D9554933028F40C5F1F4F9FE3D0
S113062099830DC0833631F0833771F0833509F037
S113063059C021C0F801808189830E5F1F4F88242F
S11306408394912C530113C02801F2E04F0E511CE6
S1130650F801A080B18036FE03C0692D70E002C0AD
S11306606FEF7FEFC5010E9479044C018201F32DE5
S1130670FF773F2E16C0280122E0420E511CF801DC
S1130680A080B18036FE03C0692D70E002C06FEF18
S11306907FEFC5010E946E044C01F32DF0683F2EDC
S11306A0820133FC1BC0822D90E088169906B0F4B9
S11306B0B60180E290E00E9484042A94F4CFF5010C
S11306C037FC859137FE81915F01B60190E00E946D
S11306D0840421102A9421E0821A9108811491043F
S11306E071F7E8C0843611F0893641F5F80137FE18
S11306F007C060817181828193810C5F1F4F08C0A4
S113070060817181072E000C880B990B0E5F1F4FBF
S1130710F32DFF763F2E97FF09C090958095709535
S113072061957F4F8F4F9F4FF0683F2E2AE030E056
S1130730A3010E94C004882E861845C0853731F471
S1130740232D2F7EB22E2AE030E025C0932D997FF1
S1130750B92E8F36C1F018F4883579F0B5C08037DA
S113076019F0883721F0B0C0E92FE061BE2EB4FE45
S11307700DC0FB2DF460BF2E09C034FE0AC0292F22
S11307802660B22E06C028E030E005C020E130E04B
S113079002C020E132E0F801B7FE07C06081718138
S11307A0828193810C5F1F4F06C06081718180E05C
S11307B090E00E5F1F4FA3010E94C004882E86188C
S11307C0FB2DFF773F2E36FE0DC0232D2E7FA22E4C
S11307D0891458F434FE0BC032FC09C0832D8E7E7C
S11307E0A82E05C0B82CA32C03C0B82C01C0B92C6A
S11307F0A4FE0FC0FE01E80DF11D8081803321F4B9
S11308009A2D997EA92E09C0A2FE06C0B394B39472
S113081004C08A2D867809F0B394A3FC11C0A0FE0D
S113082006C0B21488F4280C922C9B180EC0B21483
S113083060F4B60180E290E00E948404B394F7CFA0
S1130840B21418F42B1802C0982C212CA4FE10C04A
S1130850B60180E390E00E948404A2FE17C0A1FCCC
S113086003C088E790E002C088E590E0B6010CC0C0
S11308708A2D867859F0A1FE02C08BE201C080E285
S1130880A7FC8DE2B60190E00E948404891438F438
S1130890B60180E390E00E9484049A94F7CF8A948E
S11308A0F301E80DF11D8081B60190E00E948404FB
S11308B08110F5CF222009F442CEB60180E290E007
S11308C00E9484042A94F6CFF6018681978102C09F
S11308D08FEF9FEF2B96E2E10C943A05FC01059013
S11308E0615070400110D8F7809590958E0F9F1F2E
S11308F00895FC016150704001900110D8F7809573
S113090090958E0F9F1F08950F931F93CF93DF939E
S1130910FB01238121FD03C08FEF9FEF2CC022FF39
S113092016C046815781248135814217530744F408
S1130930A081B1819D012F5F3F4F318320838C9330
S1130940268137812F5F3F4F3783268314C08B0165
S1130950EC01FB010084F185E02D0995892BE1F67A
S1130960D80116968D919C911797019617969C9392
S11309708E931697CE01DF91CF911F910F91089519
S1130980FA01AA27283051F1203181F1E8946F93BC
S11309906E7F6E5F7F4F8F4F9F4FAF4FB1E03ED062
S11309A0B4E03CD0670F781F891F9A1FA11D680F00
S11309B0791F8A1F911DA11D6A0F711D811D911D33
S11309C0A11D20D009F468943F912AE0269F1124A8
S11309D03019305D3193DEF6CF010895462F47700C
S11309E0405D4193B3E00FD0C9F7F6CF462F4F7067
S11309F0405D4A3318F0495D31FD4052419302D0C5
S1130A00A9F7EACFB4E0A69597958795779567956A
S1130A10BA95C9F700976105710508959B01AC016A
S1130A200A2E06945795479537952795BA95C9F791
S1130A30620F731F841F951FA01D08952F923F926C
S1130A404F925F926F927F928F929F92AF92BF92DA
S1130A50CF92DF92EF92FF920F931F93CF93DF9386
S1130A60CDB7DEB7CA1BDB0B0FB6F894DEBF0FBEE3
S1130A70CDBF09942A88398848885F846E847D8430
S1130A808C849B84AA84B984C884DF80EE80FD8032
S1130A900C811B81AA81B981CE0FD11D0FB6F894A8
S1110AA0DEBF0FBECDBFED010895F894FFCF69
S1110AAE686F72612025643A25642C2564006B
S9030000FC
