S0120000507261637469636131392E7372656381
S11300000C942A000C9434000C9434000C943400A6
S11300100C9434000C9434000C9434000C9434008C
S11300200C9434000C9434000C9434000C9434007C
S11300300C9434000C9434000C9434000C9434006C
S11300400C9434000C9434000C9434000C9434005C
S11300500C94340011241FBECFE5D4E0DEBFCDBF25
S11300600E94A2000C94F2000C940000FC01808118
S113007090E002C0959587956A95E2F7F1E08F27A5
S1130080817008951EB881E58DB980EB87BB089512
S1130090CF93C62F98B39F7E98BB8FB967E08EE24B
S11300A090E00E9436008111F9CFCFB967E08EE26B
S11300B090E00E9436008111F9CF88B3806188BB3B
S11300C08FB1CF91089560E089E00E9448006FE00D
S11300D08AE00E94480063E08BE00E94480061E0EF
S11300E08CE00E94480060E081E00E94480008958E
S11300F08823A1F08130A1F08230A1F08330A1F0F7
S11301008430A1F08530A1F08630A1F08730A1F0D1
S11301108830A1F08930A1F487E608958FE308952B
S113012086E008958BE508958FE4089586E60895A2
S11301308DE608958DE7089587E408958FE708957F
S113014086E008950E9442000E946300EE24E39436
S1130150F12C2FE38DE093E0215080409040E1F7B3
S113016000C00000C701C4E06AE070E00E94CA0059
S1130170162FD72F0E947800682F8C2F0E944800DA
S1130180812F9D2F009711F0C150EECF2FEFE21A6F
S1130190F20ADFCF97FB072E16F4009407D077FD01
S11301A009D00E94DE0007FC05D03EF490958195AD
S11301B09F4F0895709561957F4F0895AA1BBB1BAF
S11301C051E107C0AA1FBB1FA617B70710F0A61B53
S11301D0B70B881F991F5A95A9F780959095BC0174
S10B01E0CD010895F894FFCF4E
S9030000FC
