:020000020000FC
:100000000C942A000C9426010C9427010C942801CE
:100010000C9429010C942A010C942B010C942C01B2
:100020000C942D010C942E010C942F010C94300192
:100030000C9431010C9432010C9433010C94340172
:100040000C9435010C9436010C9437010C94380152
:100050000C94390104E00EBF0FE50DBF00EF0ABBA1
:1000600001E801BB00E802BB40E051E0E0E080E0D5
:1000700090E00FEF0BBBDC9800000000C89B91C024
:10008000C99B76C0CA9B59C0CB9B3CC0DC9ADD980B
:1000900000000000C89B7EC0C99B63C0CA9B46C0CD
:1000A000CB9B29C0DD9ADE9800000000C89B6CC085
:1000B000C99B50C0CA9B33C0CB9B16C0DE9ADF9849
:1000C00000000000C89B5AC0C99B3DC0CA9B20C00D
:1000D000CB9B03C000000000CCCFACD0CB9BFECFAD
:1000E000A9D001E065D0C5CFA5D0CB9BFECFA2D0D3
:1000F00002E05ED0BECF9ED0CB9BFECF9BD003E074
:1001000057D0B7CF97D0CB9BFECF94D051D0B1CFA3
:1001100091D0CA9BFECF8ED004E04AD0AACF8AD01D
:10012000CA9BFECF87D005E043D0A3CF83D0CA9B24
:10013000FECF80D006E03CD09CCF7CD0CA9BFECFC7
:1001400079D036D096CF76D0C99BFECF73D007E05A
:100150002FD08FCF6FD0C99BFECF6CD008E028D0B6
:1001600088CF68D0C99BFECF65D009E021D081CF70
:1001700061D0C99BFECF5ED01BD07BCF5BD0C89B2C
:10018000FECF58D015D075CF55D0C89BFECF52D0DA
:100190000FD06FCF4FD0C89BFECF4CD000E008D01F
:1001A00068CF48D0C89BFECF45D0809B3BC061CF75
:1001B000E13041F1879BB1F1403051F0413061F0C5
:1001C000423071F0433081F02DC061E0460F089558
:1001D00061E0061350E0F9CF65E0061350E0F5CF7B
:1001E00067E0061350E0F1CF69E0061350E000C06D
:1001F000513009F003C000E002BBE7CF01E802BBC9
:10020000E1E0E3CF892F902FA0E0823029F09330F6
:1002100031F0A23039F0D9CF01E0A00FF8CF01E0E2
:10022000A00FF7CF40E000E802BB51E0E0E080E043
:1002300090E01FCF15E624EA2A95F1F71A95D9F731
:1002400011E01A95F1F7000000000895189518952F
:100250001895189518951895189518951895189536
:100260001895189518951895189518951895189526
:040270001895189530
:00000001FF
