:020000020000FC
:100000000C942A000C941B010C941C010C941D01EF
:100010000C941E010C941F010C9420010C942101DE
:100020000C9422010C9423010C9424010C942501BE
:100030000C9426010C9427010C9428010C9429019E
:100040000C942A010C942B010C942C010C942D017E
:100050000C942E0104E00EBF0FE50DBF07E00ABBB4
:100060000FEF04BB01BB00E005BB02BB0FEF07BBFA
:1000700000E008BB0DE30CBF0AE603BF40E050E020
:1000800060E070E080E00FEF0BBBD898000000004C
:10009000CB9B31C0CC9B47C0CD9B5DC0CE9B71C07C
:1000A000D89AD99800000000CB9B1DC0CC9B33C0D0
:1000B000CD9B49C0CE9B5DC0D99ADA980000000064
:1000C000CB9B09C0CC9B1FC0CD9B35C0CE9B4BC0EA
:1000D00000000000D8CF08E0E1E064D0A0D0CB9BC6
:1000E000FECF9DD0D0CF04E0E2E05CD098D0CB9B97
:1000F000FECF95D0C8CF0CE0E3E054D090D0CB9B9E
:10010000FECF8DD0C0CF02E0E4E04CD088D0CC9BB5
:10011000FECF85D0B8CF0AE0E5E044D080D0CC9BBC
:10012000FECF7DD0B0CF06E0E6E03CD078D0CC9BCF
:10013000FECF75D0A8CF0EE0E7E034D070D0CD9BD5
:10014000FECF6DD0A0CF01E0E8E02CD068D0CD9BF1
:10015000FECF65D098CF09E0E9E024D060D0CD9BF8
:10016000FECF5DD090CF38D05AD0CE9BFECF57D0A7
:100170008ACF00E0E0E016D052D0CE9BFECF4FD029
:1001800082CF00E005BB02BB0DE30CBF0AE603BF54
:1001900040E050E060E070E080E041D0CE9BFECFD8
:1001A0003ED071CF403021F0413031F04395089579
:1001B000502F7E2F07D0FACF652F872F502F7E2FFD
:1001C00001D0F4CF55BB62BB08950AE073950A9540
:1001D0000130E4F78A9502C001E40CBF8130ACF72E
:1001E0007A305CF07E3164F072336CF0763474F007
:1001F0007A357CF0743684F008950DE30CBFFCCFA3
:100200000EE30CBFF9CF0FE30CBFF6CF00E40CBF39
:10021000F3CF01E40CBFF0CF02E40CBFEDCF11E14E
:1002200024EF2A95F1F71A95D9F711E01A95F1F70D
:1002300000000000089518951895189518951895C0
:100240001895189518951895189518951895189546
:0E0250001895189518951895189518951895E5
:00000001FF
