:020000020000FC
:100000000C942A000C9438000C9439000C943A009B
:100010000C943B000C943C000C943D000C943E006E
:100020000C943F000C9440000C9441000C9442004E
:100030000C9443000C9444000C9445000C9446002E
:100040000C9447000C9448000C9449000C944A000E
:100050000C944B0004E00EBF0FE50DBF00E00ABB9F
:100060000FEF0BBB04BB00E005BB09B305BBFDCF25
:100070001895189518951895189518951895189518
:100080001895189518951895189518951895189508
:080090001895189518951895B4
:00000001FF
