:020000020000FC
:100000000C942A000C943E010C943F010C94400186
:100010000C9441010C9442010C9443010C94440152
:100020000C9445010C9446010C9447010C94480132
:100030000C9449010C944A010C944B010C944C0112
:100040000C944D010C944E010C944F010C945001F2
:100050000C94510104E00EBF0FE50DBF00EF0ABB89
:1000600001E00BBB0FEF04BB07BB01BB00E005BB0E
:1000700002BB08BB41E050E060E070E080E090E04F
:10008000C89B2CC00FEF0BBBDC9800000000C99B85
:1000900030C0CA9B35C0CB9B3AC0DC9ADD980000CB
:1000A0000000C99B3BC0CA9B40C0CB9B45C0DD9AAA
:1000B000DE9800000000C99B46C0CA9B4BC0CB9B8A
:1000C00050C0DE9ADF9800000000C99B51C0CA9B57
:1000D00056C0CB9B5BC000000000D2CF00E005BB48
:1000E00002BB08BB41E050E060E070E080E090E0DF
:1000F000C7CFB8D0C99BFECFB5D001E056D0C0CF96
:10010000B1D0CA9BFECFAED002E04FD0B9CFAAD0BB
:10011000CB9BFECFA7D003E048D0B2CFA3D0C99BE2
:10012000FECFA0D004E041D0ABCF9CD0CA9BFECF85
:1001300099D005E03AD0A4CF95D0CB9BFECF92D0FA
:1001400006E033D09DCF8ED0C99BFECF8BD007E089
:100150002CD096CF87D0CA9BFECF84D008E025D084
:100160008FCF80D0CB9BFECF7DD009E01ED088CF33
:1001700079D0C99BFECF76D0433079F081CF72D051
:10018000CA9BFECF6FD000E010D07ACF6BD0CB9B54
:10019000FECF68D0433029F073CF91E001E0400FEB
:1001A0006FCF92E001E0400F6BCF413051F0423011
:1001B00059F0443061F0453069F0089501E0400F96
:1001C0000895502F0BD0FACF602F08D0F7CF702FA3
:1001D0000CD0F4CF802F09D00FD0F0CFE62FE295CE
:1001E000F0E0F52BFE2BF5BB0895E82FE295F0E04B
:1001F000F72BFE2BF2BB0895C1E00AE0E0E0A0E09F
:10020000503021F0A00FEC0FE517E4F3A60FE0E06B
:10021000B0E0703021F0B00FEC0FE717E4F3B80F47
:10022000F0E0913071F0923071F0E0E0FA2FFA30A6
:10023000B4F0EC0FF01BFA30E4F7AE2FBF2F08D06C
:100240000895AB0FF2CFAB1BF0CFEC0FA0E00895F9
:10025000EB2FE295F0E0FA2BFE2BF8BB0895A29568
:10026000A8BB0ECF11E124EF2A95F1F71A95D9F723
:1002700011E01A95F1F700000000089518951895FF
:100280001895189518951895189518951895189506
:1002900018951895189518951895189518951895F6
:0402A0001895189500
:00000001FF
