:020000020000FC
:100000000C942A000C947C000C947D000C947E00CF
:100010000C947F000C9480000C9481000C9482005E
:100020000C9483000C9484000C9485000C9486003E
:100030000C9487000C9488000C9489000C948A001E
:100040000C948B000C948C000C948D000C948E00FE
:100050000C949A0004E00EBF0FE50DBF00E00ABB50
:1000600001E80BBB0FEF04BB01BB00E005BB02BB0B
:100070000BE90CBF03E008BF02E009BF00E002BFCC
:1000800008E003BF7894E1E0F0E0C89B03C0CF9B99
:100090000FC0FBCF00E005BB02BB60E070E080E07A
:1000A00090E01ED0C89BFECF1BD00CE003BFEDCF6D
:1000B00017D0CF9BFECF14D0CDCFE7CF80E0939564
:1000C00018957FEF8395189560E07395A82FA295FA
:1000D000A07FA72B95BBA2BB189508E003BF18957E
:1000E00011E124EF2A95F1F71A95D9F711E01A9545
:1000F000F1F70000000008951895189518951895C7
:100100001895189518951895189518951895189587
:100110001895189518951895189518955FB79530F6
:10012000E1F2793071F2863049F26395643661F21A
:060130005FBF1895189551
:00000001FF
