:020000020000FC
:100000000C942A000C9476000C9477000C947800E1
:100010000C9479000C947A000C947B000C947C0076
:100020000C947D000C947E000C947F000C94800056
:100030000C9481000C9482000C9483000C94840036
:100040000C9485000C9486000C9487000C94880016
:100050000C94890004E00EBF0FE50DBF00E007BB64
:1000600003E008BB0FE00ABBB09B03C0B19B07C015
:10007000FBCF25D00AD0B09BFDCF21D0F5CF1FD02C
:1000800011D0B19BFDCF1BD0EFCF25D00CE00BBB27
:1000900022D006E00BBB1FD003E00BBB1CD009E055
:1000A0000BBB089518D003E00BBB15D006E00BBBCB
:1000B00012D00CE00BBB0FD009E00BBB089515E686
:1000C00024EA2A95F1F71A95D9F711E01A95F1F774
:1000D00000000000089515EA29EC2A95F1F71A9519
:1000E000D9F713E01A95F1F70000089518951895BF
:1000F0001895189518951895189518951895189598
:100100001895189518951895189518951895189587
:040110001895189591
:00000001FF
